{
  "contractName": "ERC721",
  "abi": [
    {
      "anonymous": false,
      "inputs": [
        {
          "indexed": true,
          "internalType": "address",
          "name": "from",
          "type": "address"
        },
        {
          "indexed": true,
          "internalType": "address",
          "name": "to",
          "type": "address"
        },
        {
          "indexed": true,
          "internalType": "uint256",
          "name": "tokenId",
          "type": "uint256"
        }
      ],
      "name": "Transfer",
      "type": "event"
    },
    {
      "inputs": [
        {
          "internalType": "address",
          "name": "_owner",
          "type": "address"
        }
      ],
      "name": "balanceOf",
      "outputs": [
        {
          "internalType": "uint256",
          "name": "",
          "type": "uint256"
        }
      ],
      "stateMutability": "view",
      "type": "function"
    },
    {
      "inputs": [
        {
          "internalType": "uint256",
          "name": "_tokenId",
          "type": "uint256"
        }
      ],
      "name": "ownerOf",
      "outputs": [
        {
          "internalType": "address",
          "name": "",
          "type": "address"
        }
      ],
      "stateMutability": "view",
      "type": "function"
    },
    {
      "inputs": [
        {
          "internalType": "address",
          "name": "_from",
          "type": "address"
        },
        {
          "internalType": "address",
          "name": "_to",
          "type": "address"
        },
        {
          "internalType": "uint256",
          "name": "_tokenId",
          "type": "uint256"
        }
      ],
      "name": "transferFrom",
      "outputs": [],
      "stateMutability": "nonpayable",
      "type": "function"
    }
  ],
  "bytecode": "0x608060405234801561001057600080fd5b50610961806100206000396000f3fe608060405234801561001057600080fd5b50600436106100415760003560e01c806323b872dd146100465780636352211e1461006257806370a0823114610092575b600080fd5b610060600480360381019061005b9190610518565b6100c2565b005b61007c6004803603810190610077919061056b565b6100d2565b60405161008991906105a7565b60405180910390f35b6100ac60048036038101906100a791906105c2565b610183565b6040516100b991906105fe565b60405180910390f35b6100cd83838361023b565b505050565b60008060008084815260200190815260200160002060009054906101000a900473ffffffffffffffffffffffffffffffffffffffff169050600073ffffffffffffffffffffffffffffffffffffffff168173ffffffffffffffffffffffffffffffffffffffff16141561017a576040517f08c379a00000000000000000000000000000000000000000000000000000000081526004016101719061069c565b60405180910390fd5b80915050919050565b60008073ffffffffffffffffffffffffffffffffffffffff168273ffffffffffffffffffffffffffffffffffffffff1614156101f4576040517f08c379a00000000000000000000000000000000000000000000000000000000081526004016101eb9061072e565b60405180910390fd5b600160008373ffffffffffffffffffffffffffffffffffffffff1673ffffffffffffffffffffffffffffffffffffffff168152602001908152602001600020549050919050565b600073ffffffffffffffffffffffffffffffffffffffff168273ffffffffffffffffffffffffffffffffffffffff1614156102ab576040517f08c379a00000000000000000000000000000000000000000000000000000000081526004016102a2906107c0565b60405180910390fd5b8273ffffffffffffffffffffffffffffffffffffffff166102cb826100d2565b73ffffffffffffffffffffffffffffffffffffffff1614610321576040517f08c379a000000000000000000000000000000000000000000000000000000000815260040161031890610852565b60405180910390fd5b60018060008573ffffffffffffffffffffffffffffffffffffffff1673ffffffffffffffffffffffffffffffffffffffff168152602001908152602001600020600082825461037091906108a1565b9250508190555060018060008473ffffffffffffffffffffffffffffffffffffffff1673ffffffffffffffffffffffffffffffffffffffff16815260200190815260200160002060008282546103c691906108d5565b925050819055508160008083815260200190815260200160002060006101000a81548173ffffffffffffffffffffffffffffffffffffffff021916908373ffffffffffffffffffffffffffffffffffffffff160217905550808273ffffffffffffffffffffffffffffffffffffffff16600073ffffffffffffffffffffffffffffffffffffffff167fddf252ad1be2c89b69c2b068fc378daa952ba7f163c4a11628f55a4df523b3ef60405160405180910390a4505050565b600080fd5b600073ffffffffffffffffffffffffffffffffffffffff82169050919050565b60006104af82610484565b9050919050565b6104bf816104a4565b81146104ca57600080fd5b50565b6000813590506104dc816104b6565b92915050565b6000819050919050565b6104f5816104e2565b811461050057600080fd5b50565b600081359050610512816104ec565b92915050565b6000806000606084860312156105315761053061047f565b5b600061053f868287016104cd565b9350506020610550868287016104cd565b925050604061056186828701610503565b9150509250925092565b6000602082840312156105815761058061047f565b5b600061058f84828501610503565b91505092915050565b6105a1816104a4565b82525050565b60006020820190506105bc6000830184610598565b92915050565b6000602082840312156105d8576105d761047f565b5b60006105e6848285016104cd565b91505092915050565b6105f8816104e2565b82525050565b600060208201905061061360008301846105ef565b92915050565b600082825260208201905092915050565b7f6f776e657220717565727920666f72206e6f6e2d6578697374656e7420746f2060008201527f6164647265737300000000000000000000000000000000000000000000000000602082015250565b6000610686602783610619565b91506106918261062a565b604082019050919050565b600060208201905081810360008301526106b581610679565b9050919050565b7f6f776e657220717565727920666f72206e6f6e2d6578697374656e7420746f6b60008201527f656e000000000000000000000000000000000000000000000000000000000000602082015250565b6000610718602283610619565b9150610723826106bc565b604082019050919050565b600060208201905081810360008301526107478161070b565b9050919050565b7f4572726f72202d20455243373231205472616e7366657220746f207a65726f2060008201527f6164647265737300000000000000000000000000000000000000000000000000602082015250565b60006107aa602783610619565b91506107b58261074e565b604082019050919050565b600060208201905081810360008301526107d98161079d565b9050919050565b7f547279696e6720746f207472616e73666572206120746f6b656e20746865206160008201527f64647265737320646f6573206e6f74206f776e21000000000000000000000000602082015250565b600061083c603483610619565b9150610847826107e0565b604082019050919050565b6000602082019050818103600083015261086b8161082f565b9050919050565b7f4e487b7100000000000000000000000000000000000000000000000000000000600052601160045260246000fd5b60006108ac826104e2565b91506108b7836104e2565b9250828210156108ca576108c9610872565b5b828203905092915050565b60006108e0826104e2565b91506108eb836104e2565b9250827fffffffffffffffffffffffffffffffffffffffffffffffffffffffffffffffff038211156109205761091f610872565b5b82820190509291505056fea2646970667358221220ec619dfde1e6d1d287385d7c2c2bb526e1b7860d0bd6f347ef355de8db2b3ea064736f6c634300080b0033",
  "immutableReferences": {},
  "source": "// SPDX-License-Identifier: MIT\npragma solidity ^0.8.0;\n\ncontract ERC721 {\n\n    event Transfer(address indexed from, address indexed to, uint256 indexed tokenId);\n    /*\n        BUILDING OUT THE MINTING FUNCTION :\n        A. NFT TO POINT TO AN ADDRES\n        B. KEEP TRACK OF THE TOKEN ID'S\n        C. KEEP TRACK OF TOKEN OWNERS ADDRESSES TO TOKEN ID'S\n        D. KEEP TRACK OF HOW MANY TOKENS AN OWNER ADDRESS HAS\n        E. CREATE AN EVENT THAT EMITS A TRANSFER LOG - CONTRACT ADDRESS, WHERE IT IS BEING MINTED TO , THE ID\n     */\n\n    // Mapping from token id to the owner\n     mapping(uint256=> address) private _tokenOwner;\n\n     // Mapping from owner to number of owned tokens\n     mapping(address => uint256) private _OwnedTokensCount;\n\n    //Mapping from token id to approved addresses\n    mapping(uint256 => address) private _tokenApprovals;\n\n\n    /// @notice Count all NFTs assigned to an owner\n    /// @dev NFTs assigned to the zero address are considered invalid, and this\n    ///  function throws for queries about the zero address.\n    /// @param _owner An address for whom to query the balance\n    /// @return The number of NFTs owned by `_owner`, possibly zeros\n\n    function balanceOf(address _owner) public view returns(uint256)\n    {\n        require(_owner != address(0),'owner query for non-existent token');\n        return _OwnedTokensCount[_owner];\n    }\n\n    /// @notice Find the owner of an NFT\n    /// @dev NFTs assigned to zero address are considered invalid, and queries\n    ///  about them do throw.\n    /// @param _tokenId The identifier for an NFT\n    /// @return The address of the owner of the NFT\n\n    function ownerOf(uint256 _tokenId) public view returns (address){\n        address owner = _tokenOwner[_tokenId];\n        require(owner != address(0), 'owner query for non-existent to address');\n        return owner;\n    }\n\n     function _exists(uint256 tokenId) internal view returns(bool){\n         // setting the address of nft owner to check the mapping\n         // of the address from tokenOwner at the tokenId\n         address owner = _tokenOwner[tokenId];\n         // return truthiness the address is not zero\n         return owner != address(0);\n     }\n\n     function _mint(address to, uint256 tokenId) internal virtual{\n         // requires that the address isn't  zero\n         require(to != address(0), 'ERC721: minting to the zero address');\n         // requires that the token does not already exist\n         require(!_exists(tokenId), 'ERC721: token already minted');\n         // we are adding a new address with a token id for minting\n         _tokenOwner[tokenId] = to;\n         // keeping track of each address that is minting and adding one to the count\n         _OwnedTokensCount[to] += 1;\n\n         emit Transfer(address(0), to, tokenId);\n     }\n\n    /// @notice Transfer ownership of an NFT -- THE CALLER IS RESPONSIBLE\n    ///  TO CONFIRM THAT `_to` IS CAPABLE OF RECEIVING NFTS OR ELSE\n    ///  THEY MAY BE PERMANENTLY LOST\n    /// @dev Throws unless `msg.sender` is the current owner, an authorized\n    ///  operator, or the approved address for this NFT. Throws if `_from` is\n    ///  not the current owner. Throws if `_to` is the zero address. Throws if\n    ///  `_tokenId` is not a valid NFT.\n    /// @param _from The current owner of the NFT\n    /// @param _to The new owner\n    /// @param _tokenId The NFT to transfer\n\n    function _transferFrom(address _from, address _to, uint256 _tokenId) internal{\n        // a. require that the address receiving a token is not a rezo address\n        require(_to != address(0),'Error - ERC721 Transfer to zero address');\n        require(ownerOf(_tokenId) == _from, 'Trying to transfer a token the address does not own!');\n\n        // 2. update the balance of the address _from token\n        _OwnedTokensCount[_from] -= 1;\n        // 3. update the balance of the address _to\n        _OwnedTokensCount[_to] += 1;\n        // 1. add the token id to the address receiving the token\n        _tokenOwner[_tokenId] = _to;\n\n        emit Transfer(address(0), _to, _tokenId);\n    }\n\n    function transferFrom(address _from, address _to, uint256 _tokenId) public{\n        _transferFrom(_from, _to, _tokenId);\n    }\n}",
  "sourcePath": "/home/deddybrama1/react-projects/latihan/nft-marketplace-starter-kit/src/contracts/ERC721.sol",
  "compiler": {
    "name": "solc",
    "version": "0.8.11+commit.d7f03943.Emscripten.clang"
  },
  "schemaVersion": "3.4.3",
  "updatedAt": "2022-01-15T08:04:42.015Z",
  "devdoc": {
    "kind": "dev",
    "methods": {
      "balanceOf(address)": {
        "details": "NFTs assigned to the zero address are considered invalid, and this  function throws for queries about the zero address.",
        "params": {
          "_owner": "An address for whom to query the balance"
        },
        "returns": {
          "_0": "The number of NFTs owned by `_owner`, possibly zeros"
        }
      },
      "ownerOf(uint256)": {
        "details": "NFTs assigned to zero address are considered invalid, and queries  about them do throw.",
        "params": {
          "_tokenId": "The identifier for an NFT"
        },
        "returns": {
          "_0": "The address of the owner of the NFT"
        }
      }
    },
    "version": 1
  },
  "userdoc": {
    "kind": "user",
    "methods": {
      "balanceOf(address)": {
        "notice": "Count all NFTs assigned to an owner"
      },
      "ownerOf(uint256)": {
        "notice": "Find the owner of an NFT"
      }
    },
    "version": 1
  }
}