{
  "contractName": "KryptoBird",
  "abi": [
    {
      "inputs": [],
      "stateMutability": "nonpayable",
      "type": "constructor"
    },
    {
      "anonymous": false,
      "inputs": [
        {
          "indexed": true,
          "internalType": "address",
          "name": "from",
          "type": "address"
        },
        {
          "indexed": true,
          "internalType": "address",
          "name": "to",
          "type": "address"
        },
        {
          "indexed": true,
          "internalType": "uint256",
          "name": "tokenId",
          "type": "uint256"
        }
      ],
      "name": "Transfer",
      "type": "event"
    },
    {
      "inputs": [
        {
          "internalType": "address",
          "name": "_owner",
          "type": "address"
        }
      ],
      "name": "balanceOf",
      "outputs": [
        {
          "internalType": "uint256",
          "name": "",
          "type": "uint256"
        }
      ],
      "stateMutability": "view",
      "type": "function",
      "constant": true
    },
    {
      "inputs": [
        {
          "internalType": "uint256",
          "name": "",
          "type": "uint256"
        }
      ],
      "name": "kryptoBirdz",
      "outputs": [
        {
          "internalType": "string",
          "name": "",
          "type": "string"
        }
      ],
      "stateMutability": "view",
      "type": "function",
      "constant": true
    },
    {
      "inputs": [],
      "name": "name",
      "outputs": [
        {
          "internalType": "string",
          "name": "",
          "type": "string"
        }
      ],
      "stateMutability": "view",
      "type": "function",
      "constant": true
    },
    {
      "inputs": [
        {
          "internalType": "uint256",
          "name": "_tokenId",
          "type": "uint256"
        }
      ],
      "name": "ownerOf",
      "outputs": [
        {
          "internalType": "address",
          "name": "",
          "type": "address"
        }
      ],
      "stateMutability": "view",
      "type": "function",
      "constant": true
    },
    {
      "inputs": [],
      "name": "symbol",
      "outputs": [
        {
          "internalType": "string",
          "name": "",
          "type": "string"
        }
      ],
      "stateMutability": "view",
      "type": "function",
      "constant": true
    },
    {
      "inputs": [
        {
          "internalType": "uint256",
          "name": "_index",
          "type": "uint256"
        }
      ],
      "name": "tokenByIndex",
      "outputs": [
        {
          "internalType": "uint256",
          "name": "",
          "type": "uint256"
        }
      ],
      "stateMutability": "view",
      "type": "function",
      "constant": true
    },
    {
      "inputs": [
        {
          "internalType": "address",
          "name": "_owner",
          "type": "address"
        },
        {
          "internalType": "uint256",
          "name": "_index",
          "type": "uint256"
        }
      ],
      "name": "tokenOfOwnerByIndex",
      "outputs": [
        {
          "internalType": "uint256",
          "name": "",
          "type": "uint256"
        }
      ],
      "stateMutability": "view",
      "type": "function",
      "constant": true
    },
    {
      "inputs": [],
      "name": "totalSupply",
      "outputs": [
        {
          "internalType": "uint256",
          "name": "",
          "type": "uint256"
        }
      ],
      "stateMutability": "view",
      "type": "function",
      "constant": true
    },
    {
      "inputs": [
        {
          "internalType": "address",
          "name": "_from",
          "type": "address"
        },
        {
          "internalType": "address",
          "name": "_to",
          "type": "address"
        },
        {
          "internalType": "uint256",
          "name": "_tokenId",
          "type": "uint256"
        }
      ],
      "name": "transferFrom",
      "outputs": [],
      "stateMutability": "nonpayable",
      "type": "function"
    },
    {
      "inputs": [
        {
          "internalType": "string",
          "name": "_kryptoBirdz",
          "type": "string"
        }
      ],
      "name": "mint",
      "outputs": [],
      "stateMutability": "nonpayable",
      "type": "function"
    }
  ],
  "bytecode": "0x60806040523480156200001157600080fd5b506040518060400160405280600a81526020017f4b727970746f42697264000000000000000000000000000000000000000000008152506040518060400160405280600681526020017f4b424952445a00000000000000000000000000000000000000000000000000008152508181816000908051906020019062000098929190620000bc565b508060019080519060200190620000b1929190620000bc565b5050505050620001d1565b828054620000ca906200019b565b90600052602060002090601f016020900481019282620000ee57600085556200013a565b82601f106200010957805160ff19168380011785556200013a565b828001600101855582156200013a579182015b82811115620001395782518255916020019190600101906200011c565b5b5090506200014991906200014d565b5090565b5b80821115620001685760008160009055506001016200014e565b5090565b7f4e487b7100000000000000000000000000000000000000000000000000000000600052602260045260246000fd5b60006002820490506001821680620001b457607f821691505b60208210811415620001cb57620001ca6200016c565b5b50919050565b61189080620001e16000396000f3fe608060405234801561001057600080fd5b506004361061009e5760003560e01c80636352211e116100665780636352211e1461015b57806370a082311461018b57806393ab6e56146101bb57806395d89b41146101eb578063d85d3d27146102095761009e565b806306fdde03146100a357806318160ddd146100c157806323b872dd146100df5780632f745c59146100fb5780634f6ccce71461012b575b600080fd5b6100ab610225565b6040516100b89190610e85565b60405180910390f35b6100c96102b7565b6040516100d69190610ec0565b60405180910390f35b6100f960048036038101906100f49190610f79565b6102c4565b005b61011560048036038101906101109190610fcc565b6102d4565b6040516101229190610ec0565b60405180910390f35b6101456004803603810190610140919061100c565b610384565b6040516101529190610ec0565b60405180910390f35b6101756004803603810190610170919061100c565b6103f5565b6040516101829190611048565b60405180910390f35b6101a560048036038101906101a09190611063565b6104a7565b6040516101b29190610ec0565b60405180910390f35b6101d560048036038101906101d0919061100c565b61055f565b6040516101e29190610e85565b60405180910390f35b6101f361060b565b6040516102009190610e85565b60405180910390f35b610223600480360381019061021e91906111c5565b61069d565b005b6060600080546102349061123d565b80601f01602080910402602001604051908101604052809291908181526020018280546102609061123d565b80156102ad5780601f10610282576101008083540402835291602001916102ad565b820191906000526020600020905b81548152906001019060200180831161029057829003601f168201915b5050505050905090565b6000600580549050905090565b6102cf8383836107a0565b505050565b60006102df836104a7565b8210610320576040517f08c379a0000000000000000000000000000000000000000000000000000000008152600401610317906112bb565b60405180910390fd5b600760008473ffffffffffffffffffffffffffffffffffffffff1673ffffffffffffffffffffffffffffffffffffffff1681526020019081526020016000208281548110610371576103706112db565b5b9060005260206000200154905092915050565b60008161038f6102b7565b116103cf576040517f08c379a00000000000000000000000000000000000000000000000000000000081526004016103c690611356565b60405180910390fd5b600582815481106103e3576103e26112db565b5b90600052602060002001549050919050565b6000806002600084815260200190815260200160002060009054906101000a900473ffffffffffffffffffffffffffffffffffffffff169050600073ffffffffffffffffffffffffffffffffffffffff168173ffffffffffffffffffffffffffffffffffffffff16141561049e576040517f08c379a0000000000000000000000000000000000000000000000000000000008152600401610495906113e8565b60405180910390fd5b80915050919050565b60008073ffffffffffffffffffffffffffffffffffffffff168273ffffffffffffffffffffffffffffffffffffffff161415610518576040517f08c379a000000000000000000000000000000000000000000000000000000000815260040161050f9061147a565b60405180910390fd5b600360008373ffffffffffffffffffffffffffffffffffffffff1673ffffffffffffffffffffffffffffffffffffffff168152602001908152602001600020549050919050565b6009818154811061056f57600080fd5b90600052602060002001600091509050805461058a9061123d565b80601f01602080910402602001604051908101604052809291908181526020018280546105b69061123d565b80156106035780601f106105d857610100808354040283529160200191610603565b820191906000526020600020905b8154815290600101906020018083116105e657829003601f168201915b505050505081565b60606001805461061a9061123d565b80601f01602080910402602001604051908101604052809291908181526020018280546106469061123d565b80156106935780601f1061066857610100808354040283529160200191610693565b820191906000526020600020905b81548152906001019060200180831161067657829003601f168201915b5050505050905090565b600a816040516106ad91906114d6565b908152602001604051809103902060009054906101000a900460ff1615610709576040517f08c379a00000000000000000000000000000000000000000000000000000000081526004016107009061155f565b60405180910390fd5b600981908060018154018082558091505060019003906000526020600020016000909190919091509080519060200190610744929190610d49565b506000600160098054905061075991906115ae565b905061076533826109e7565b6001600a8360405161077791906114d6565b908152602001604051809103902060006101000a81548160ff0219169083151502179055505050565b600073ffffffffffffffffffffffffffffffffffffffff168273ffffffffffffffffffffffffffffffffffffffff161415610810576040517f08c379a000000000000000000000000000000000000000000000000000000000815260040161080790611654565b60405180910390fd5b8273ffffffffffffffffffffffffffffffffffffffff16610830826103f5565b73ffffffffffffffffffffffffffffffffffffffff1614610886576040517f08c379a000000000000000000000000000000000000000000000000000000000815260040161087d906116e6565b60405180910390fd5b6001600360008573ffffffffffffffffffffffffffffffffffffffff1673ffffffffffffffffffffffffffffffffffffffff16815260200190815260200160002060008282546108d691906115ae565b925050819055506001600360008473ffffffffffffffffffffffffffffffffffffffff1673ffffffffffffffffffffffffffffffffffffffff168152602001908152602001600020600082825461092d9190611706565b92505081905550816002600083815260200190815260200160002060006101000a81548173ffffffffffffffffffffffffffffffffffffffff021916908373ffffffffffffffffffffffffffffffffffffffff160217905550808273ffffffffffffffffffffffffffffffffffffffff16600073ffffffffffffffffffffffffffffffffffffffff167fddf252ad1be2c89b69c2b068fc378daa952ba7f163c4a11628f55a4df523b3ef60405160405180910390a4505050565b6109f18282610a08565b6109fa81610bca565b610a048282610c13565b5050565b600073ffffffffffffffffffffffffffffffffffffffff168273ffffffffffffffffffffffffffffffffffffffff161415610a78576040517f08c379a0000000000000000000000000000000000000000000000000000000008152600401610a6f906117ce565b60405180910390fd5b610a8181610cd7565b15610ac1576040517f08c379a0000000000000000000000000000000000000000000000000000000008152600401610ab89061183a565b60405180910390fd5b816002600083815260200190815260200160002060006101000a81548173ffffffffffffffffffffffffffffffffffffffff021916908373ffffffffffffffffffffffffffffffffffffffff1602179055506001600360008473ffffffffffffffffffffffffffffffffffffffff1673ffffffffffffffffffffffffffffffffffffffff1681526020019081526020016000206000828254610b639190611706565b92505081905550808273ffffffffffffffffffffffffffffffffffffffff16600073ffffffffffffffffffffffffffffffffffffffff167fddf252ad1be2c89b69c2b068fc378daa952ba7f163c4a11628f55a4df523b3ef60405160405180910390a45050565b6005805490506006600083815260200190815260200160002081905550600581908060018154018082558091505060019003906000526020600020016000909190919091505550565b600760008373ffffffffffffffffffffffffffffffffffffffff1673ffffffffffffffffffffffffffffffffffffffff168152602001908152602001600020805490506008600083815260200190815260200160002081905550600760008373ffffffffffffffffffffffffffffffffffffffff1673ffffffffffffffffffffffffffffffffffffffff1681526020019081526020016000208190806001815401808255809150506001900390600052602060002001600090919091909150555050565b6000806002600084815260200190815260200160002060009054906101000a900473ffffffffffffffffffffffffffffffffffffffff169050600073ffffffffffffffffffffffffffffffffffffffff168173ffffffffffffffffffffffffffffffffffffffff161415915050919050565b828054610d559061123d565b90600052602060002090601f016020900481019282610d775760008555610dbe565b82601f10610d9057805160ff1916838001178555610dbe565b82800160010185558215610dbe579182015b82811115610dbd578251825591602001919060010190610da2565b5b509050610dcb9190610dcf565b5090565b5b80821115610de8576000816000905550600101610dd0565b5090565b600081519050919050565b600082825260208201905092915050565b60005b83811015610e26578082015181840152602081019050610e0b565b83811115610e35576000848401525b50505050565b6000601f19601f8301169050919050565b6000610e5782610dec565b610e618185610df7565b9350610e71818560208601610e08565b610e7a81610e3b565b840191505092915050565b60006020820190508181036000830152610e9f8184610e4c565b905092915050565b6000819050919050565b610eba81610ea7565b82525050565b6000602082019050610ed56000830184610eb1565b92915050565b6000604051905090565b600080fd5b600080fd5b600073ffffffffffffffffffffffffffffffffffffffff82169050919050565b6000610f1a82610eef565b9050919050565b610f2a81610f0f565b8114610f3557600080fd5b50565b600081359050610f4781610f21565b92915050565b610f5681610ea7565b8114610f6157600080fd5b50565b600081359050610f7381610f4d565b92915050565b600080600060608486031215610f9257610f91610ee5565b5b6000610fa086828701610f38565b9350506020610fb186828701610f38565b9250506040610fc286828701610f64565b9150509250925092565b60008060408385031215610fe357610fe2610ee5565b5b6000610ff185828601610f38565b925050602061100285828601610f64565b9150509250929050565b60006020828403121561102257611021610ee5565b5b600061103084828501610f64565b91505092915050565b61104281610f0f565b82525050565b600060208201905061105d6000830184611039565b92915050565b60006020828403121561107957611078610ee5565b5b600061108784828501610f38565b91505092915050565b600080fd5b600080fd5b7f4e487b7100000000000000000000000000000000000000000000000000000000600052604160045260246000fd5b6110d282610e3b565b810181811067ffffffffffffffff821117156110f1576110f061109a565b5b80604052505050565b6000611104610edb565b905061111082826110c9565b919050565b600067ffffffffffffffff8211156111305761112f61109a565b5b61113982610e3b565b9050602081019050919050565b82818337600083830152505050565b600061116861116384611115565b6110fa565b90508281526020810184848401111561118457611183611095565b5b61118f848285611146565b509392505050565b600082601f8301126111ac576111ab611090565b5b81356111bc848260208601611155565b91505092915050565b6000602082840312156111db576111da610ee5565b5b600082013567ffffffffffffffff8111156111f9576111f8610eea565b5b61120584828501611197565b91505092915050565b7f4e487b7100000000000000000000000000000000000000000000000000000000600052602260045260246000fd5b6000600282049050600182168061125557607f821691505b602082108114156112695761126861120e565b5b50919050565b7f6f776e657220696e646578206973206f7574206f6620626f756e647321000000600082015250565b60006112a5601d83610df7565b91506112b08261126f565b602082019050919050565b600060208201905081810360008301526112d481611298565b9050919050565b7f4e487b7100000000000000000000000000000000000000000000000000000000600052603260045260246000fd5b7f676c6f62616c20696e646578206973206f7574206f6620626f756e6473210000600082015250565b6000611340601e83610df7565b915061134b8261130a565b602082019050919050565b6000602082019050818103600083015261136f81611333565b9050919050565b7f6f776e657220717565727920666f72206e6f6e2d6578697374656e7420746f2060008201527f6164647265737300000000000000000000000000000000000000000000000000602082015250565b60006113d2602783610df7565b91506113dd82611376565b604082019050919050565b60006020820190508181036000830152611401816113c5565b9050919050565b7f6f776e657220717565727920666f72206e6f6e2d6578697374656e7420746f6b60008201527f656e000000000000000000000000000000000000000000000000000000000000602082015250565b6000611464602283610df7565b915061146f82611408565b604082019050919050565b6000602082019050818103600083015261149381611457565b9050919050565b600081905092915050565b60006114b082610dec565b6114ba818561149a565b93506114ca818560208601610e08565b80840191505092915050565b60006114e282846114a5565b915081905092915050565b7f4572726f72202d206b727970746f4269726420616c726561647920657869737460008201527f7300000000000000000000000000000000000000000000000000000000000000602082015250565b6000611549602183610df7565b9150611554826114ed565b604082019050919050565b600060208201905081810360008301526115788161153c565b9050919050565b7f4e487b7100000000000000000000000000000000000000000000000000000000600052601160045260246000fd5b60006115b982610ea7565b91506115c483610ea7565b9250828210156115d7576115d661157f565b5b828203905092915050565b7f4572726f72202d20455243373231205472616e7366657220746f207a65726f2060008201527f6164647265737300000000000000000000000000000000000000000000000000602082015250565b600061163e602783610df7565b9150611649826115e2565b604082019050919050565b6000602082019050818103600083015261166d81611631565b9050919050565b7f547279696e6720746f207472616e73666572206120746f6b656e20746865206160008201527f64647265737320646f6573206e6f74206f776e21000000000000000000000000602082015250565b60006116d0603483610df7565b91506116db82611674565b604082019050919050565b600060208201905081810360008301526116ff816116c3565b9050919050565b600061171182610ea7565b915061171c83610ea7565b9250827fffffffffffffffffffffffffffffffffffffffffffffffffffffffffffffffff038211156117515761175061157f565b5b828201905092915050565b7f4552433732313a206d696e74696e6720746f20746865207a65726f206164647260008201527f6573730000000000000000000000000000000000000000000000000000000000602082015250565b60006117b8602383610df7565b91506117c38261175c565b604082019050919050565b600060208201905081810360008301526117e7816117ab565b9050919050565b7f4552433732313a20746f6b656e20616c7265616479206d696e74656400000000600082015250565b6000611824601c83610df7565b915061182f826117ee565b602082019050919050565b6000602082019050818103600083015261185381611817565b905091905056fea264697066735822122092514e42b298409e4aafcbc5afc4a96e915ed3ff6863ba91b76dcf4cdc0e168464736f6c634300080b0033",
  "immutableReferences": {},
  "source": "// SPDX-License-Identifier: MIT\npragma solidity ^0.8.0;\n\nimport './ERC721Connector.sol';\n\ncontract KryptoBird is ERC721Connector {\n\n    // array to store our nfts\n    string [] public kryptoBirdz;\n\n    mapping(string => bool) _kryptoBirdzExists;\n\n    function mint(string memory _kryptoBirdz) public\n    {\n        require(!_kryptoBirdzExists[_kryptoBirdz], 'Error - kryptoBird already exists');\n        // this is deprecated uint _id = KryptoBirdz.push(_kryptoBirdz);\n        kryptoBirdz.push(_kryptoBirdz);\n        uint _id = kryptoBirdz.length -1;\n        _mint(msg.sender, _id);\n        _kryptoBirdzExists[_kryptoBirdz] = true;\n    }\n\n    constructor() ERC721Connector('KryptoBird','KBIRDZ') {\n\n    }\n}\n",
  "sourcePath": "/home/deddybrama1/react-projects/latihan/nft-marketplace-starter-kit/src/contracts/KryptoBirdz.sol",
  "compiler": {
    "name": "solc",
    "version": "0.8.11+commit.d7f03943.Emscripten.clang"
  },
  "schemaVersion": "3.4.3",
  "updatedAt": "2022-01-15T08:06:30.602Z",
  "networkType": "ethereum",
  "devdoc": {
    "kind": "dev",
    "methods": {
      "balanceOf(address)": {
        "details": "NFTs assigned to the zero address are considered invalid, and this  function throws for queries about the zero address.",
        "params": {
          "_owner": "An address for whom to query the balance"
        },
        "returns": {
          "_0": "The number of NFTs owned by `_owner`, possibly zeros"
        }
      },
      "ownerOf(uint256)": {
        "details": "NFTs assigned to zero address are considered invalid, and queries  about them do throw.",
        "params": {
          "_tokenId": "The identifier for an NFT"
        },
        "returns": {
          "_0": "The address of the owner of the NFT"
        }
      }
    },
    "version": 1
  },
  "userdoc": {
    "kind": "user",
    "methods": {
      "balanceOf(address)": {
        "notice": "Count all NFTs assigned to an owner"
      },
      "ownerOf(uint256)": {
        "notice": "Find the owner of an NFT"
      }
    },
    "version": 1
  }
}